:100000000C9446000C945D000C945D000C945D0013
:100010000C945D000C945D000C945D000C945D00EC
:100020000C945D000C945D000C945D000C945D00DC
:100030000C945D000C945D000C945D000C945D00CC
:100040000C945D000C945D000C945D000C945D00BC
:100050000C945D000C945D000C945D000C945D00AC
:100060000C945D000C945D000C945D000C945D009C
:100070000C945D000C945D000C945D000C945D008C
:100080000C945D000C945D000C945D0011241FBE67
:10009000CFEFD0E4DEBFCDBF11E0A0E0B1E0ECE9EE
:1000A000F1E000E00BBF02C007900D92AE30B10747
:1000B000D9F70E9470000C94CC000C940000CF93F0
:1000C000C82F8A3019F48DE00E945F009091C00023
:1000D00095FFFCCFC093C60080E090E0CF910895DB
:1000E00011B88FEF82B914B885B917B888B98AB931
:1000F0001BB860E020B193B146B130E0F901E90FDF
:10010000F11DCF0150E0840F951F8C38910574F4D8
:10011000F901E41BF50BE035F10544F4959587955D
:1001200095958795682F660F660F34C08C389105BA
:100130007CF4F901E41BF50BE135F1054CF09595E4
:10014000879595958795880F880F61E0680F22C085
:100150008D3891057CF0F901E41BF50BE035F105D4
:100160004CF49595879595958795880F880F62E053
:10017000680F10C08D3891056CF0241B350B2135AC
:10018000310544F09595879595958795880F880F4B
:0C01900063E0680F6BB9AECFF894FFCFAE
:0E019C0000000002000000005F0000000000F4
:00000001FF
