:100000000C9446000C945D000C945D000C945D0013
:100010000C945D000C945D000C945D000C945D00EC
:100020000C945D000C945D000C945D000C945D00DC
:100030000C945D000C945D000C945D000C945D00CC
:100040000C945D000C945D000C945D000C945D00BC
:100050000C945D000C945D000C945D000C945D00AC
:100060000C945D000C945D000C945D000C945D009C
:100070000C945D000C945D000C945D000C945D008C
:100080000C945D000C945D000C945D0011241FBE67
:10009000CFEFD0E4DEBFCDBF11E0A0E0B1E0E2E7FA
:1000A000F1E000E00BBF02C007900D92AE30B10747
:1000B000D9F70E9470000C94B7000C940000CF9305
:1000C000C82F8A3019F48DE00E945F009091C00023
:1000D00095FFFCCFC093C60080E090E0CF910895DB
:1000E00011B88FEF82B987B918B890E080B1882332
:1000F000F9F02FEF280F2230E8F08430E9F0883053
:10010000E9F08330E9F08530E9F08630E9F08930B4
:10011000E9F08A30E9F08C30E9F08730E9F08B3093
:10012000E9F08D30E9F08E30E9F08F30F1F41CC049
:1001300094E01BC093E019C093E017C093E015C092
:1001400092E013C092E011C092E00FC092E00DC0A7
:1001500092E00BC092E009C091E007C091E005C0B9
:1001600091E003C091E001C090E898B9BFCFF89446
:02017000FFCFBF
:0E01720000000002000000005F00000000001E
:00000001FF
